{
  "contractName": "Location",
  "abi": [
    {
      "inputs": [
        {
          "internalType": "uint256",
          "name": "",
          "type": "uint256"
        }
      ],
      "name": "locations",
      "outputs": [
        {
          "internalType": "string",
          "name": "locationName",
          "type": "string"
        },
        {
          "internalType": "string",
          "name": "locationDesc",
          "type": "string"
        }
      ],
      "stateMutability": "view",
      "type": "function"
    },
    {
      "inputs": [
        {
          "internalType": "string",
          "name": "_locationName",
          "type": "string"
        },
        {
          "internalType": "string",
          "name": "_locationDesc",
          "type": "string"
        }
      ],
      "name": "addLocation",
      "outputs": [],
      "stateMutability": "nonpayable",
      "type": "function"
    },
    {
      "inputs": [
        {
          "internalType": "string",
          "name": "_locationName",
          "type": "string"
        }
      ],
      "name": "findLocation",
      "outputs": [
        {
          "internalType": "uint256",
          "name": "",
          "type": "uint256"
        }
      ],
      "stateMutability": "view",
      "type": "function"
    },
    {
      "inputs": [
        {
          "internalType": "string",
          "name": "_locationName",
          "type": "string"
        }
      ],
      "name": "viewDesc",
      "outputs": [
        {
          "internalType": "string",
          "name": "",
          "type": "string"
        }
      ],
      "stateMutability": "view",
      "type": "function"
    },
    {
      "inputs": [
        {
          "internalType": "string",
          "name": "_locName",
          "type": "string"
        }
      ],
      "name": "deleteLocation",
      "outputs": [],
      "stateMutability": "nonpayable",
      "type": "function"
    },
    {
      "inputs": [],
      "name": "viewLocations",
      "outputs": [
        {
          "components": [
            {
              "internalType": "string",
              "name": "locationName",
              "type": "string"
            },
            {
              "internalType": "string",
              "name": "locationDesc",
              "type": "string"
            }
          ],
          "internalType": "struct Location.LocationStruct[]",
          "name": "",
          "type": "tuple[]"
        }
      ],
      "stateMutability": "view",
      "type": "function"
    },
    {
      "inputs": [
        {
          "internalType": "int256",
          "name": "longitude",
          "type": "int256"
        },
        {
          "internalType": "int256",
          "name": "latitude",
          "type": "int256"
        },
        {
          "internalType": "string",
          "name": "locationName",
          "type": "string"
        }
      ],
      "name": "verifyLocation",
      "outputs": [],
      "stateMutability": "view",
      "type": "function"
    }
  ],
  "bytecode": "0x608060405234801561001057600080fd5b50610fda806100206000396000f3fe608060405234801561001057600080fd5b506004361061009a576000357c0100000000000000000000000000000000000000000000000000000000900480636991223f116100785780636991223f14610109578063ada99ef514610125578063b9e0db3514610155578063cefb85aa146101865761009a565b806315059e731461009f578063177948be146100bd57806327743a1c146100d9575b600080fd5b6100a76101a2565b6040516100b4919061099d565b60405180910390f35b6100d760048036038101906100d29190610b3e565b610325565b005b6100f360048036038101906100ee9190610bad565b61032a565b6040516101009190610c0f565b60405180910390f35b610123600480360381019061011e9190610bad565b6103e2565b005b61013f600480360381019061013a9190610bad565b610446565b60405161014c9190610c74565b60405180910390f35b61016f600480360381019061016a9190610cc2565b610557565b60405161017d929190610cef565b60405180910390f35b6101a0600480360381019061019b9190610d26565b61069b565b005b60606000805480602002602001604051908101604052809291908181526020016000905b8282101561031c57838290600052602060002090600202016040518060400160405290816000820180546101f990610dcd565b80601f016020809104026020016040519081016040528092919081815260200182805461022590610dcd565b80156102725780601f1061024757610100808354040283529160200191610272565b820191906000526020600020905b81548152906001019060200180831161025557829003601f168201915b5050505050815260200160018201805461028b90610dcd565b80601f01602080910402602001604051908101604052809291908181526020018280546102b790610dcd565b80156103045780601f106102d957610100808354040283529160200191610304565b820191906000526020600020905b8154815290600101906020018083116102e757829003601f168201915b505050505081525050815260200190600101906101c6565b50505050905090565b505050565b600080600090505b6000805490508110156103d357826040516020016103509190610e3b565b604051602081830303815290604052805190602001206000828154811061037a57610379610e52565b5b906000526020600020906002020160000160405160200161039b9190610f15565b6040516020818303038152906040528051906020012014156103c057809150506103dd565b80806103cb90610f5b565b915050610332565b5060008054905090505b919050565b60006103ed8261032a565b905060008054905081101561044257600081815481106104105761040f610e52565b5b90600052602060002090600202016000808201600061042f919061071b565b60018201600061043f919061071b565b50505b5050565b606060006104538361032a565b9050600080549050811015610518576000818154811061047657610475610e52565b5b9060005260206000209060020201600101805461049290610dcd565b80601f01602080910402602001604051908101604052809291908181526020018280546104be90610dcd565b801561050b5780601f106104e05761010080835404028352916020019161050b565b820191906000526020600020905b8154815290600101906020018083116104ee57829003601f168201915b5050505050915050610552565b6040518060400160405280601381526020017f4c6f636174696f6e206e6f7420666f756e6421000000000000000000000000008152509150505b919050565b6000818154811061056757600080fd5b906000526020600020906002020160009150905080600001805461058a90610dcd565b80601f01602080910402602001604051908101604052809291908181526020018280546105b690610dcd565b80156106035780601f106105d857610100808354040283529160200191610603565b820191906000526020600020905b8154815290600101906020018083116105e657829003601f168201915b50505050509080600101805461061890610dcd565b80601f016020809104026020016040519081016040528092919081815260200182805461064490610dcd565b80156106915780601f1061066657610100808354040283529160200191610691565b820191906000526020600020905b81548152906001019060200180831161067457829003601f168201915b5050505050905082565b6000604051806040016040528084815260200183815250908060018154018082558091505060019003906000526020600020906002020160009091909190915060008201518160000190805190602001906106f792919061075b565b50602082015181600101908051906020019061071492919061075b565b5050505050565b50805461072790610dcd565b6000825580601f106107395750610758565b601f01602090049060005260206000209081019061075791906107e1565b5b50565b82805461076790610dcd565b90600052602060002090601f01602090048101928261078957600085556107d0565b82601f106107a257805160ff19168380011785556107d0565b828001600101855582156107d0579182015b828111156107cf5782518255916020019190600101906107b4565b5b5090506107dd91906107e1565b5090565b5b808211156107fa5760008160009055506001016107e2565b5090565b600081519050919050565b600082825260208201905092915050565b6000819050602082019050919050565b600081519050919050565b600082825260208201905092915050565b60005b83811015610864578082015181840152602081019050610849565b83811115610873576000848401525b50505050565b6000601f19601f8301169050919050565b60006108958261082a565b61089f8185610835565b93506108af818560208601610846565b6108b881610879565b840191505092915050565b600060408301600083015184820360008601526108e0828261088a565b915050602083015184820360208601526108fa828261088a565b9150508091505092915050565b600061091383836108c3565b905092915050565b6000602082019050919050565b6000610933826107fe565b61093d8185610809565b93508360208202850161094f8561081a565b8060005b8581101561098b578484038952815161096c8582610907565b94506109778361091b565b925060208a01995050600181019050610953565b50829750879550505050505092915050565b600060208201905081810360008301526109b78184610928565b905092915050565b6000604051905090565b600080fd5b600080fd5b6000819050919050565b6109e6816109d3565b81146109f157600080fd5b50565b600081359050610a03816109dd565b92915050565b600080fd5b600080fd5b7f4e487b7100000000000000000000000000000000000000000000000000000000600052604160045260246000fd5b610a4b82610879565b810181811067ffffffffffffffff82111715610a6a57610a69610a13565b5b80604052505050565b6000610a7d6109bf565b9050610a898282610a42565b919050565b600067ffffffffffffffff821115610aa957610aa8610a13565b5b610ab282610879565b9050602081019050919050565b82818337600083830152505050565b6000610ae1610adc84610a8e565b610a73565b905082815260208101848484011115610afd57610afc610a0e565b5b610b08848285610abf565b509392505050565b600082601f830112610b2557610b24610a09565b5b8135610b35848260208601610ace565b91505092915050565b600080600060608486031215610b5757610b566109c9565b5b6000610b65868287016109f4565b9350506020610b76868287016109f4565b925050604084013567ffffffffffffffff811115610b9757610b966109ce565b5b610ba386828701610b10565b9150509250925092565b600060208284031215610bc357610bc26109c9565b5b600082013567ffffffffffffffff811115610be157610be06109ce565b5b610bed84828501610b10565b91505092915050565b6000819050919050565b610c0981610bf6565b82525050565b6000602082019050610c246000830184610c00565b92915050565b600082825260208201905092915050565b6000610c468261082a565b610c508185610c2a565b9350610c60818560208601610846565b610c6981610879565b840191505092915050565b60006020820190508181036000830152610c8e8184610c3b565b905092915050565b610c9f81610bf6565b8114610caa57600080fd5b50565b600081359050610cbc81610c96565b92915050565b600060208284031215610cd857610cd76109c9565b5b6000610ce684828501610cad565b91505092915050565b60006040820190508181036000830152610d098185610c3b565b90508181036020830152610d1d8184610c3b565b90509392505050565b60008060408385031215610d3d57610d3c6109c9565b5b600083013567ffffffffffffffff811115610d5b57610d5a6109ce565b5b610d6785828601610b10565b925050602083013567ffffffffffffffff811115610d8857610d876109ce565b5b610d9485828601610b10565b9150509250929050565b7f4e487b7100000000000000000000000000000000000000000000000000000000600052602260045260246000fd5b60006002820490506001821680610de557607f821691505b60208210811415610df957610df8610d9e565b5b50919050565b600081905092915050565b6000610e158261082a565b610e1f8185610dff565b9350610e2f818560208601610846565b80840191505092915050565b6000610e478284610e0a565b915081905092915050565b7f4e487b7100000000000000000000000000000000000000000000000000000000600052603260045260246000fd5b60008190508160005260206000209050919050565b60008154610ea381610dcd565b610ead8186610dff565b94506001821660008114610ec85760018114610ed957610f0c565b60ff19831686528186019350610f0c565b610ee285610e81565b60005b83811015610f0457815481890152600182019150602081019050610ee5565b838801955050505b50505092915050565b6000610f218284610e96565b915081905092915050565b7f4e487b7100000000000000000000000000000000000000000000000000000000600052601160045260246000fd5b6000610f6682610bf6565b91507fffffffffffffffffffffffffffffffffffffffffffffffffffffffffffffffff821415610f9957610f98610f2c565b5b60018201905091905056fea264697066735822122051d0f13fac128db8a1d9d5ebd8abe38adf3504597e96de448f6fcd23cdff87a564736f6c634300080b0033",
  "immutableReferences": {},
  "source": "// SPDX-License-Identifier:MIT\r\n\r\npragma solidity ^0.8.7;\r\n\r\ncontract Location {\r\n\r\n    //Struct for Location\r\n    struct LocationStruct {\r\n        string locationName;\r\n        string locationDesc;\r\n    }\r\n\r\n    LocationStruct[] public locations;//array to store locations\r\n\r\n    //Add new location function\r\n    function addLocation(string memory _locationName, string memory _locationDesc) external {\r\n        locations.push(LocationStruct(_locationName, _locationDesc)); //add new location to the locations array\r\n    }\r\n\r\n    //Function returns array index of location if location exists, else returns size of array\r\n    function findLocation (string memory _locationName) public view returns (uint){\r\n        for (uint i=0; i<locations.length; i++){\r\n            //check if current location name is equal to find location name\r\n            if(keccak256(abi.encodePacked((locations[i].locationName))) == keccak256(abi.encodePacked((_locationName)))){ //comparing two strings\r\n                return i;//then return array index of location\r\n            }\r\n        }\r\n        return locations.length;//return size of array if location name NOT FOUND\r\n    }\r\n\r\n    //Returns description of relevant location\r\n    function viewDesc (string memory _locationName) external view returns (string memory){\r\n        uint locId = findLocation(_locationName);\r\n        if (!(locId >= locations.length)){\r\n            return locations[locId].locationDesc;\r\n        }\r\n        return \"Location not found!\";\r\n    }\r\n\r\n    //Delete a location from locations array\r\n    function deleteLocation (string memory _locName) external {\r\n        uint locId = findLocation(_locName);\r\n\r\n        if (!(locId >= locations.length)){\r\n            delete locations[locId];\r\n        }\r\n    }\r\n\r\n    function viewLocations() external view returns(LocationStruct[] memory) {\r\n        return locations;\r\n    }\r\n\r\n    //Function that validates a user input as a new loation\r\n    function verifyLocation(int longitude, int latitude, string memory locationName) external view{\r\n\r\n    }\r\n}",
  "sourcePath": "D:\\IIT\\2021-2022 Level 5\\1st Semester\\SDGP\\Development\\Frontend_Development\\flutter_dapp\\contracts\\Location.sol",
  "compiler": {
    "name": "solc",
    "version": "0.8.11+commit.d7f03943.Emscripten.clang"
  },
  "schemaVersion": "3.4.5",
  "updatedAt": "2022-03-30T07:06:22.867Z",
  "devdoc": {
    "kind": "dev",
    "methods": {},
    "version": 1
  },
  "userdoc": {
    "kind": "user",
    "methods": {},
    "version": 1
  }
}