{
  "contractName": "Location",
  "abi": [
    {
      "inputs": [
        {
          "internalType": "uint256",
          "name": "",
          "type": "uint256"
        }
      ],
      "name": "locations",
      "outputs": [
        {
          "internalType": "string",
          "name": "locationName",
          "type": "string"
        },
        {
          "internalType": "string",
          "name": "locationDesc",
          "type": "string"
        },
        {
          "internalType": "string",
          "name": "longLat",
          "type": "string"
        }
      ],
      "stateMutability": "view",
      "type": "function",
      "constant": true
    },
    {
      "inputs": [
        {
          "internalType": "string",
          "name": "_locationName",
          "type": "string"
        },
        {
          "internalType": "string",
          "name": "_locationDesc",
          "type": "string"
        },
        {
          "internalType": "string",
          "name": "_longLat",
          "type": "string"
        }
      ],
      "name": "addLocation",
      "outputs": [],
      "stateMutability": "nonpayable",
      "type": "function"
    },
    {
      "inputs": [
        {
          "internalType": "string",
          "name": "_locationName",
          "type": "string"
        }
      ],
      "name": "findLocation",
      "outputs": [
        {
          "internalType": "uint256",
          "name": "",
          "type": "uint256"
        }
      ],
      "stateMutability": "view",
      "type": "function",
      "constant": true
    },
    {
      "inputs": [
        {
          "internalType": "string",
          "name": "_locationName",
          "type": "string"
        }
      ],
      "name": "viewDesc",
      "outputs": [
        {
          "internalType": "string",
          "name": "",
          "type": "string"
        }
      ],
      "stateMutability": "view",
      "type": "function",
      "constant": true
    },
    {
      "inputs": [],
      "name": "viewLocationName",
      "outputs": [
        {
          "internalType": "string",
          "name": "",
          "type": "string"
        }
      ],
      "stateMutability": "view",
      "type": "function",
      "constant": true
    },
    {
      "inputs": [
        {
          "internalType": "string",
          "name": "_locationName",
          "type": "string"
        }
      ],
      "name": "viewLongLat",
      "outputs": [
        {
          "internalType": "string",
          "name": "",
          "type": "string"
        }
      ],
      "stateMutability": "view",
      "type": "function",
      "constant": true
    },
    {
      "inputs": [
        {
          "internalType": "string",
          "name": "_locName",
          "type": "string"
        }
      ],
      "name": "deleteLocation",
      "outputs": [],
      "stateMutability": "nonpayable",
      "type": "function"
    },
    {
      "inputs": [],
      "name": "viewAllLocations",
      "outputs": [
        {
          "components": [
            {
              "internalType": "string",
              "name": "locationName",
              "type": "string"
            },
            {
              "internalType": "string",
              "name": "locationDesc",
              "type": "string"
            },
            {
              "internalType": "string",
              "name": "longLat",
              "type": "string"
            }
          ],
          "internalType": "struct Location.LocationStruct[]",
          "name": "",
          "type": "tuple[]"
        }
      ],
      "stateMutability": "view",
      "type": "function",
      "constant": true
    },
    {
      "inputs": [
        {
          "internalType": "int256",
          "name": "longitude",
          "type": "int256"
        },
        {
          "internalType": "int256",
          "name": "latitude",
          "type": "int256"
        },
        {
          "internalType": "string",
          "name": "locationName",
          "type": "string"
        }
      ],
      "name": "verifyLocation",
      "outputs": [],
      "stateMutability": "view",
      "type": "function",
      "constant": true
    },
    {
      "inputs": [],
      "name": "getLocation",
      "outputs": [
        {
          "internalType": "string",
          "name": "",
          "type": "string"
        }
      ],
      "stateMutability": "view",
      "type": "function",
      "constant": true
    }
  ],
  "bytecode": "0x608060405234801561001057600080fd5b50611495806100206000396000f3fe608060405234801561001057600080fd5b50600436106100bb576000357c01000000000000000000000000000000000000000000000000000000009004806399dd51581161008357806399dd515814610162578063ada99ef514610192578063b9e0db35146101c2578063c7169069146101f4578063ce2ce3fc14610212576100bb565b8063177948be146100c0578063207978a6146100dc57806327743a1c146100f85780635e92773b146101285780636991223f14610146575b600080fd5b6100da60048036038101906100d59190610deb565b610230565b005b6100f660048036038101906100f19190610e5a565b610235565b005b610112600480360381019061010d9190610f01565b6102d9565b60405161011f9190610f63565b60405180910390f35b610130610391565b60405161013d9190611126565b60405180910390f35b610160600480360381019061015b9190610f01565b6105a6565b005b61017c60048036038101906101779190610f01565b61061a565b6040516101899190611192565b60405180910390f35b6101ac60048036038101906101a79190610f01565b61072b565b6040516101b99190611192565b60405180910390f35b6101dc60048036038101906101d791906111e0565b61083c565b6040516101eb9392919061120d565b60405180910390f35b6101fc610a0e565b6040516102099190611192565b60405180910390f35b61021a610ac3565b6040516102279190611192565b60405180910390f35b505050565b600060405180606001604052808581526020018481526020018381525090806001815401808255809150506001900390600052602060002090600302016000909190919091506000820151816000019080519060200190610297929190610b78565b5060208201518160010190805190602001906102b4929190610b78565b5060408201518160020190805190602001906102d1929190610b78565b505050505050565b600080600090505b60008054905081101561038257826040516020016102ff9190611295565b6040516020818303038152906040528051906020012060008281548110610329576103286112ac565b5b906000526020600020906003020160000160405160200161034a91906113d0565b60405160208183030381529060405280519060200120141561036f578091505061038c565b808061037a90611416565b9150506102e1565b5060008054905090505b919050565b60606000805480602002602001604051908101604052809291908181526020016000905b8282101561059d57838290600052602060002090600302016040518060600160405290816000820180546103e89061130a565b80601f01602080910402602001604051908101604052809291908181526020018280546104149061130a565b80156104615780601f1061043657610100808354040283529160200191610461565b820191906000526020600020905b81548152906001019060200180831161044457829003601f168201915b5050505050815260200160018201805461047a9061130a565b80601f01602080910402602001604051908101604052809291908181526020018280546104a69061130a565b80156104f35780601f106104c8576101008083540402835291602001916104f3565b820191906000526020600020905b8154815290600101906020018083116104d657829003601f168201915b5050505050815260200160028201805461050c9061130a565b80601f01602080910402602001604051908101604052809291908181526020018280546105389061130a565b80156105855780601f1061055a57610100808354040283529160200191610585565b820191906000526020600020905b81548152906001019060200180831161056857829003601f168201915b505050505081525050815260200190600101906103b5565b50505050905090565b60006105b1826102d9565b905060008054905081101561061657600081815481106105d4576105d36112ac565b5b9060005260206000209060030201600080820160006105f39190610bfe565b6001820160006106039190610bfe565b6002820160006106139190610bfe565b50505b5050565b60606000610627836102d9565b90506000805490508110156106ec576000818154811061064a576106496112ac565b5b906000526020600020906003020160020180546106669061130a565b80601f01602080910402602001604051908101604052809291908181526020018280546106929061130a565b80156106df5780601f106106b4576101008083540402835291602001916106df565b820191906000526020600020905b8154815290600101906020018083116106c257829003601f168201915b5050505050915050610726565b6040518060400160405280601381526020017f4c6f636174696f6e206e6f7420666f756e6421000000000000000000000000008152509150505b919050565b60606000610738836102d9565b90506000805490508110156107fd576000818154811061075b5761075a6112ac565b5b906000526020600020906003020160010180546107779061130a565b80601f01602080910402602001604051908101604052809291908181526020018280546107a39061130a565b80156107f05780601f106107c5576101008083540402835291602001916107f0565b820191906000526020600020905b8154815290600101906020018083116107d357829003601f168201915b5050505050915050610837565b6040518060400160405280601281526020017f4c6f6361746f6e206e6f7420666f756e642100000000000000000000000000008152509150505b919050565b6000818154811061084c57600080fd5b906000526020600020906003020160009150905080600001805461086f9061130a565b80601f016020809104026020016040519081016040528092919081815260200182805461089b9061130a565b80156108e85780601f106108bd576101008083540402835291602001916108e8565b820191906000526020600020905b8154815290600101906020018083116108cb57829003601f168201915b5050505050908060010180546108fd9061130a565b80601f01602080910402602001604051908101604052809291908181526020018280546109299061130a565b80156109765780601f1061094b57610100808354040283529160200191610976565b820191906000526020600020905b81548152906001019060200180831161095957829003601f168201915b50505050509080600201805461098b9061130a565b80601f01602080910402602001604051908101604052809291908181526020018280546109b79061130a565b8015610a045780601f106109d957610100808354040283529160200191610a04565b820191906000526020600020905b8154815290600101906020018083116109e757829003601f168201915b5050505050905083565b606060008081548110610a2457610a236112ac565b5b90600052602060002090600302016000018054610a409061130a565b80601f0160208091040260200160405190810160405280929190818152602001828054610a6c9061130a565b8015610ab95780601f10610a8e57610100808354040283529160200191610ab9565b820191906000526020600020905b815481529060010190602001808311610a9c57829003601f168201915b5050505050905090565b606060008081548110610ad957610ad86112ac565b5b90600052602060002090600302016000018054610af59061130a565b80601f0160208091040260200160405190810160405280929190818152602001828054610b219061130a565b8015610b6e5780601f10610b4357610100808354040283529160200191610b6e565b820191906000526020600020905b815481529060010190602001808311610b5157829003601f168201915b5050505050905090565b828054610b849061130a565b90600052602060002090601f016020900481019282610ba65760008555610bed565b82601f10610bbf57805160ff1916838001178555610bed565b82800160010185558215610bed579182015b82811115610bec578251825591602001919060010190610bd1565b5b509050610bfa9190610c3e565b5090565b508054610c0a9061130a565b6000825580601f10610c1c5750610c3b565b601f016020900490600052602060002090810190610c3a9190610c3e565b5b50565b5b80821115610c57576000816000905550600101610c3f565b5090565b6000604051905090565b600080fd5b600080fd5b6000819050919050565b610c8281610c6f565b8114610c8d57600080fd5b50565b600081359050610c9f81610c79565b92915050565b600080fd5b600080fd5b6000601f19601f8301169050919050565b7f4e487b7100000000000000000000000000000000000000000000000000000000600052604160045260246000fd5b610cf882610caf565b810181811067ffffffffffffffff82111715610d1757610d16610cc0565b5b80604052505050565b6000610d2a610c5b565b9050610d368282610cef565b919050565b600067ffffffffffffffff821115610d5657610d55610cc0565b5b610d5f82610caf565b9050602081019050919050565b82818337600083830152505050565b6000610d8e610d8984610d3b565b610d20565b905082815260208101848484011115610daa57610da9610caa565b5b610db5848285610d6c565b509392505050565b600082601f830112610dd257610dd1610ca5565b5b8135610de2848260208601610d7b565b91505092915050565b600080600060608486031215610e0457610e03610c65565b5b6000610e1286828701610c90565b9350506020610e2386828701610c90565b925050604084013567ffffffffffffffff811115610e4457610e43610c6a565b5b610e5086828701610dbd565b9150509250925092565b600080600060608486031215610e7357610e72610c65565b5b600084013567ffffffffffffffff811115610e9157610e90610c6a565b5b610e9d86828701610dbd565b935050602084013567ffffffffffffffff811115610ebe57610ebd610c6a565b5b610eca86828701610dbd565b925050604084013567ffffffffffffffff811115610eeb57610eea610c6a565b5b610ef786828701610dbd565b9150509250925092565b600060208284031215610f1757610f16610c65565b5b600082013567ffffffffffffffff811115610f3557610f34610c6a565b5b610f4184828501610dbd565b91505092915050565b6000819050919050565b610f5d81610f4a565b82525050565b6000602082019050610f786000830184610f54565b92915050565b600081519050919050565b600082825260208201905092915050565b6000819050602082019050919050565b600081519050919050565b600082825260208201905092915050565b60005b83811015610fe4578082015181840152602081019050610fc9565b83811115610ff3576000848401525b50505050565b600061100482610faa565b61100e8185610fb5565b935061101e818560208601610fc6565b61102781610caf565b840191505092915050565b6000606083016000830151848203600086015261104f8282610ff9565b915050602083015184820360208601526110698282610ff9565b915050604083015184820360408601526110838282610ff9565b9150508091505092915050565b600061109c8383611032565b905092915050565b6000602082019050919050565b60006110bc82610f7e565b6110c68185610f89565b9350836020820285016110d885610f9a565b8060005b8581101561111457848403895281516110f58582611090565b9450611100836110a4565b925060208a019950506001810190506110dc565b50829750879550505050505092915050565b6000602082019050818103600083015261114081846110b1565b905092915050565b600082825260208201905092915050565b600061116482610faa565b61116e8185611148565b935061117e818560208601610fc6565b61118781610caf565b840191505092915050565b600060208201905081810360008301526111ac8184611159565b905092915050565b6111bd81610f4a565b81146111c857600080fd5b50565b6000813590506111da816111b4565b92915050565b6000602082840312156111f6576111f5610c65565b5b6000611204848285016111cb565b91505092915050565b600060608201905081810360008301526112278186611159565b9050818103602083015261123b8185611159565b9050818103604083015261124f8184611159565b9050949350505050565b600081905092915050565b600061126f82610faa565b6112798185611259565b9350611289818560208601610fc6565b80840191505092915050565b60006112a18284611264565b915081905092915050565b7f4e487b7100000000000000000000000000000000000000000000000000000000600052603260045260246000fd5b7f4e487b7100000000000000000000000000000000000000000000000000000000600052602260045260246000fd5b6000600282049050600182168061132257607f821691505b60208210811415611336576113356112db565b5b50919050565b60008190508160005260206000209050919050565b6000815461135e8161130a565b6113688186611259565b945060018216600081146113835760018114611394576113c7565b60ff198316865281860193506113c7565b61139d8561133c565b60005b838110156113bf578154818901526001820191506020810190506113a0565b838801955050505b50505092915050565b60006113dc8284611351565b915081905092915050565b7f4e487b7100000000000000000000000000000000000000000000000000000000600052601160045260246000fd5b600061142182610f4a565b91507fffffffffffffffffffffffffffffffffffffffffffffffffffffffffffffffff821415611454576114536113e7565b5b60018201905091905056fea2646970667358221220773bfcecd868c3d89952f4926881e8d961752bced2f5da9350c0d0163bb99fab64736f6c634300080b0033",
  "immutableReferences": {},
  "source": "// SPDX-License-Identifier:MIT\r\n\r\npragma solidity ^0.8.7;\r\n\r\ncontract Location {\r\n\r\n    //Struct for Location\r\n    struct LocationStruct {\r\n        string locationName;\r\n        string locationDesc;\r\n        string longLat;\r\n    }\r\n\r\n    LocationStruct[] public locations;//array to store locations\r\n\r\n    //Add new location function\r\n    function addLocation(string memory _locationName, string memory _locationDesc, string memory _longLat) external {\r\n        locations.push(LocationStruct(_locationName, _locationDesc, _longLat)); //add new location to the locations array\r\n    }\r\n\r\n    //Function returns array index of location if location exists, else returns size of array\r\n    function findLocation (string memory _locationName) public view returns (uint){\r\n        for (uint i=0; i<locations.length; i++){\r\n            //check if current location name is equal to find location name\r\n            if(keccak256(abi.encodePacked((locations[i].locationName))) == keccak256(abi.encodePacked((_locationName)))){ //comparing two strings\r\n                return i;//then return array index of location\r\n            }\r\n        }\r\n        return locations.length;//return size of array if location name NOT FOUND\r\n    }\r\n\r\n    //Returns description of relevant location\r\n    function viewDesc (string memory _locationName) external view returns (string memory){\r\n        uint locId = findLocation(_locationName);\r\n        if (!(locId >= locations.length)){\r\n            return locations[locId].locationDesc;\r\n        }\r\n        return \"Locaton not found!\";\r\n    }\r\n\r\n    //returns location name\r\n    function viewLocationName  () external view returns (string memory){\r\n        return locations[0].locationName;\r\n    }\r\n\r\n    function viewLongLat (string memory _locationName) external view returns (string memory){\r\n        uint locId = findLocation(_locationName);\r\n        if (!(locId >= locations.length)){\r\n            return locations[locId].longLat;\r\n        }\r\n        return \"Location not found!\";\r\n    }\r\n\r\n\r\n    //Delete a location from locations array\r\n    function deleteLocation (string memory _locName) external {\r\n        uint locId = findLocation(_locName);\r\n\r\n        if (!(locId >= locations.length)){\r\n            delete locations[locId];\r\n        }\r\n    }\r\n\r\n    function viewAllLocations() external view returns(LocationStruct[] memory) {\r\n        return locations;\r\n    }\r\n\r\n    //Function that validates a user input as a new loation\r\n    function verifyLocation(int longitude, int latitude, string memory locationName) external view{\r\n\r\n    }\r\n\r\n    function getLocation() external view returns (string memory){\r\n        return locations[0].locationName;\r\n    }\r\n}",
  "sourcePath": "D:\\IIT\\2021-2022 Level 5\\1st Semester\\SDGP\\Development\\Frontend_Development\\flutter_dapp\\contracts\\Location.sol",
  "compiler": {
    "name": "solc",
    "version": "0.8.11+commit.d7f03943.Emscripten.clang"
  },
  "schemaVersion": "3.4.6",
  "updatedAt": "2022-05-01T04:06:26.746Z",
  "networkType": "ethereum",
  "devdoc": {
    "kind": "dev",
    "methods": {},
    "version": 1
  },
  "userdoc": {
    "kind": "user",
    "methods": {},
    "version": 1
  }
}