{
  "contractName": "Location",
  "abi": [
    {
      "inputs": [
        {
          "internalType": "uint256",
          "name": "",
          "type": "uint256"
        }
      ],
      "name": "locations",
      "outputs": [
        {
          "internalType": "string",
          "name": "locationName",
          "type": "string"
        },
        {
          "internalType": "string",
          "name": "locationDesc",
          "type": "string"
        }
      ],
      "stateMutability": "view",
      "type": "function",
      "constant": true
    },
    {
      "inputs": [
        {
          "internalType": "string",
          "name": "_locationName",
          "type": "string"
        },
        {
          "internalType": "string",
          "name": "_locationDesc",
          "type": "string"
        }
      ],
      "name": "addLocation",
      "outputs": [],
      "stateMutability": "nonpayable",
      "type": "function"
    },
    {
      "inputs": [
        {
          "internalType": "string",
          "name": "_locationName",
          "type": "string"
        }
      ],
      "name": "findLocation",
      "outputs": [
        {
          "internalType": "uint256",
          "name": "",
          "type": "uint256"
        }
      ],
      "stateMutability": "view",
      "type": "function",
      "constant": true
    },
    {
      "inputs": [
        {
          "internalType": "string",
          "name": "_locationName",
          "type": "string"
        }
      ],
      "name": "viewDesc",
      "outputs": [
        {
          "internalType": "string",
          "name": "",
          "type": "string"
        }
      ],
      "stateMutability": "view",
      "type": "function",
      "constant": true
    },
    {
      "inputs": [
        {
          "internalType": "string",
          "name": "_locName",
          "type": "string"
        }
      ],
      "name": "deleteLocation",
      "outputs": [],
      "stateMutability": "nonpayable",
      "type": "function"
    }
  ],
  "bytecode": "0x608060405234801561001057600080fd5b50610bdb806100206000396000f3fe608060405234801561001057600080fd5b5060043610610074576000357c01000000000000000000000000000000000000000000000000000000009004806327743a1c146100795780636991223f146100a9578063ada99ef5146100c5578063b9e0db35146100f5578063cefb85aa14610126575b600080fd5b610093600480360381019061008e9190610770565b610142565b6040516100a091906107d2565b60405180910390f35b6100c360048036038101906100be9190610770565b6101fa565b005b6100df60048036038101906100da9190610770565b61025e565b6040516100ec9190610875565b60405180910390f35b61010f600480360381019061010a91906108c3565b61036f565b60405161011d9291906108f0565b60405180910390f35b610140600480360381019061013b9190610927565b6104b3565b005b600080600090505b6000805490508110156101eb578260405160200161016891906109db565b6040516020818303038152906040528051906020012060008281548110610192576101916109f2565b5b90600052602060002090600202016000016040516020016101b39190610b16565b6040516020818303038152906040528051906020012014156101d857809150506101f5565b80806101e390610b5c565b91505061014a565b5060008054905090505b919050565b600061020582610142565b905060008054905081101561025a5760008181548110610228576102276109f2565b5b9060005260206000209060020201600080820160006102479190610533565b6001820160006102579190610533565b50505b5050565b6060600061026b83610142565b9050600080549050811015610330576000818154811061028e5761028d6109f2565b5b906000526020600020906002020160010180546102aa90610a50565b80601f01602080910402602001604051908101604052809291908181526020018280546102d690610a50565b80156103235780601f106102f857610100808354040283529160200191610323565b820191906000526020600020905b81548152906001019060200180831161030657829003601f168201915b505050505091505061036a565b6040518060400160405280601381526020017f4c6f636174696f6e206e6f7420666f756e6421000000000000000000000000008152509150505b919050565b6000818154811061037f57600080fd5b90600052602060002090600202016000915090508060000180546103a290610a50565b80601f01602080910402602001604051908101604052809291908181526020018280546103ce90610a50565b801561041b5780601f106103f05761010080835404028352916020019161041b565b820191906000526020600020905b8154815290600101906020018083116103fe57829003601f168201915b50505050509080600101805461043090610a50565b80601f016020809104026020016040519081016040528092919081815260200182805461045c90610a50565b80156104a95780601f1061047e576101008083540402835291602001916104a9565b820191906000526020600020905b81548152906001019060200180831161048c57829003601f168201915b5050505050905082565b60006040518060400160405280848152602001838152509080600181540180825580915050600190039060005260206000209060020201600090919091909150600082015181600001908051906020019061050f929190610573565b50602082015181600101908051906020019061052c929190610573565b5050505050565b50805461053f90610a50565b6000825580601f106105515750610570565b601f01602090049060005260206000209081019061056f91906105f9565b5b50565b82805461057f90610a50565b90600052602060002090601f0160209004810192826105a157600085556105e8565b82601f106105ba57805160ff19168380011785556105e8565b828001600101855582156105e8579182015b828111156105e75782518255916020019190600101906105cc565b5b5090506105f591906105f9565b5090565b5b808211156106125760008160009055506001016105fa565b5090565b6000604051905090565b600080fd5b600080fd5b600080fd5b600080fd5b6000601f19601f8301169050919050565b7f4e487b7100000000000000000000000000000000000000000000000000000000600052604160045260246000fd5b61067d82610634565b810181811067ffffffffffffffff8211171561069c5761069b610645565b5b80604052505050565b60006106af610616565b90506106bb8282610674565b919050565b600067ffffffffffffffff8211156106db576106da610645565b5b6106e482610634565b9050602081019050919050565b82818337600083830152505050565b600061071361070e846106c0565b6106a5565b90508281526020810184848401111561072f5761072e61062f565b5b61073a8482856106f1565b509392505050565b600082601f8301126107575761075661062a565b5b8135610767848260208601610700565b91505092915050565b60006020828403121561078657610785610620565b5b600082013567ffffffffffffffff8111156107a4576107a3610625565b5b6107b084828501610742565b91505092915050565b6000819050919050565b6107cc816107b9565b82525050565b60006020820190506107e760008301846107c3565b92915050565b600081519050919050565b600082825260208201905092915050565b60005b8381101561082757808201518184015260208101905061080c565b83811115610836576000848401525b50505050565b6000610847826107ed565b61085181856107f8565b9350610861818560208601610809565b61086a81610634565b840191505092915050565b6000602082019050818103600083015261088f818461083c565b905092915050565b6108a0816107b9565b81146108ab57600080fd5b50565b6000813590506108bd81610897565b92915050565b6000602082840312156108d9576108d8610620565b5b60006108e7848285016108ae565b91505092915050565b6000604082019050818103600083015261090a818561083c565b9050818103602083015261091e818461083c565b90509392505050565b6000806040838503121561093e5761093d610620565b5b600083013567ffffffffffffffff81111561095c5761095b610625565b5b61096885828601610742565b925050602083013567ffffffffffffffff81111561098957610988610625565b5b61099585828601610742565b9150509250929050565b600081905092915050565b60006109b5826107ed565b6109bf818561099f565b93506109cf818560208601610809565b80840191505092915050565b60006109e782846109aa565b915081905092915050565b7f4e487b7100000000000000000000000000000000000000000000000000000000600052603260045260246000fd5b7f4e487b7100000000000000000000000000000000000000000000000000000000600052602260045260246000fd5b60006002820490506001821680610a6857607f821691505b60208210811415610a7c57610a7b610a21565b5b50919050565b60008190508160005260206000209050919050565b60008154610aa481610a50565b610aae818661099f565b94506001821660008114610ac95760018114610ada57610b0d565b60ff19831686528186019350610b0d565b610ae385610a82565b60005b83811015610b0557815481890152600182019150602081019050610ae6565b838801955050505b50505092915050565b6000610b228284610a97565b915081905092915050565b7f4e487b7100000000000000000000000000000000000000000000000000000000600052601160045260246000fd5b6000610b67826107b9565b91507fffffffffffffffffffffffffffffffffffffffffffffffffffffffffffffffff821415610b9a57610b99610b2d565b5b60018201905091905056fea2646970667358221220db1499e50008f9ff8b9a5a3293efb8611b84f34f1c12f9d4213abe583f4f452e64736f6c634300080b0033",
  "immutableReferences": {},
  "source": "// SPDX-License-Identifier:MIT\r\n\r\npragma solidity ^0.8.7;\r\n\r\ncontract Location {\r\n\r\n    //Struct for Location\r\n    struct LocationStruct {\r\n        string locationName;\r\n        string locationDesc;\r\n    }\r\n\r\n    LocationStruct[] public locations;//array to store locations\r\n\r\n    //Add new location function\r\n    function addLocation(string memory _locationName, string memory _locationDesc) external {\r\n        locations.push(LocationStruct(_locationName, _locationDesc)); //add new location to the locations array\r\n    }\r\n\r\n    //Function returns array index of location if location exists, else returns size of array\r\n    function findLocation (string memory _locationName) public view returns (uint){\r\n        for (uint i=0; i<locations.length; i++){\r\n            //check if current location name is equal to find location name\r\n            if(keccak256(abi.encodePacked((locations[i].locationName))) == keccak256(abi.encodePacked((_locationName)))){ //comparing two strings\r\n                return i;//then return array index of location\r\n            }\r\n        }\r\n        return locations.length;//return size of array if location name NOT FOUND\r\n    }\r\n\r\n    //Returns description of relevant location\r\n    function viewDesc (string memory _locationName) external view returns (string memory){\r\n        uint locId = findLocation(_locationName);\r\n        if (!(locId >= locations.length)){\r\n            return locations[locId].locationDesc;\r\n        }\r\n        return \"Location not found!\";\r\n    }\r\n\r\n    //Delete a location from locations array\r\n    function deleteLocation (string memory _locName) external {\r\n        uint locId = findLocation(_locName);\r\n\r\n        if (!(locId >= locations.length)){\r\n            delete locations[locId];\r\n        }\r\n    }\r\n}",
  "sourcePath": "D:\\IIT\\2021-2022 Level 5\\1st Semester\\SDGP\\Development\\Frontend_Development\\flutter_dapp\\contracts\\Location.sol",
  "compiler": {
    "name": "solc",
    "version": "0.8.11+commit.d7f03943.Emscripten.clang"
  },
  "schemaVersion": "3.4.5",
  "updatedAt": "2022-03-08T10:40:20.661Z",
  "networkType": "ethereum",
  "devdoc": {
    "kind": "dev",
    "methods": {},
    "version": 1
  },
  "userdoc": {
    "kind": "user",
    "methods": {},
    "version": 1
  }
}