{
  "contractName": "User",
  "abi": [
    {
      "inputs": [
        {
          "internalType": "address",
          "name": "",
          "type": "address"
        }
      ],
      "name": "users",
      "outputs": [
        {
          "internalType": "string",
          "name": "email",
          "type": "string"
        },
        {
          "internalType": "string",
          "name": "username",
          "type": "string"
        },
        {
          "internalType": "string",
          "name": "password",
          "type": "string"
        },
        {
          "internalType": "string",
          "name": "tellNo",
          "type": "string"
        },
        {
          "internalType": "bool",
          "name": "set",
          "type": "bool"
        },
        {
          "internalType": "bool",
          "name": "isUserLoggedIn",
          "type": "bool"
        }
      ],
      "stateMutability": "view",
      "type": "function"
    },
    {
      "inputs": [
        {
          "internalType": "string",
          "name": "_email",
          "type": "string"
        },
        {
          "internalType": "string",
          "name": "_username",
          "type": "string"
        },
        {
          "internalType": "string",
          "name": "_password",
          "type": "string"
        },
        {
          "internalType": "string",
          "name": "_tellNo",
          "type": "string"
        }
      ],
      "name": "createUser",
      "outputs": [],
      "stateMutability": "nonpayable",
      "type": "function"
    },
    {
      "inputs": [
        {
          "internalType": "string",
          "name": "_password",
          "type": "string"
        }
      ],
      "name": "login",
      "outputs": [
        {
          "internalType": "bool",
          "name": "",
          "type": "bool"
        }
      ],
      "stateMutability": "view",
      "type": "function"
    },
    {
      "inputs": [],
      "name": "logout",
      "outputs": [],
      "stateMutability": "nonpayable",
      "type": "function"
    },
    {
      "inputs": [],
      "name": "username",
      "outputs": [
        {
          "internalType": "string",
          "name": "",
          "type": "string"
        }
      ],
      "stateMutability": "view",
      "type": "function"
    }
  ],
  "bytecode": "0x608060405234801561001057600080fd5b50610f94806100206000396000f3fe608060405234801561001057600080fd5b5060043610610074576000357c0100000000000000000000000000000000000000000000000000000000900480631f3c99c3146100795780633a7d280c1461008357806361fac54d146100b35780636f7fcddb146100d1578063a87430ba146100ed575b600080fd5b610081610122565b005b61009d60048036038101906100989190610ba2565b61017e565b6040516100aa9190610c06565b60405180910390f35b6100bb6104cb565b6040516100c89190610ca9565b60405180910390f35b6100eb60048036038101906100e69190610ccb565b61059c565b005b61010760048036038101906101029190610e00565b61072f565b60405161011996959493929190610e2d565b60405180910390f35b60008060003373ffffffffffffffffffffffffffffffffffffffff1673ffffffffffffffffffffffffffffffffffffffff16815260200190815260200160002060040160016101000a81548160ff021916908315150217905550565b6000806000803373ffffffffffffffffffffffffffffffffffffffff1673ffffffffffffffffffffffffffffffffffffffff1681526020019081526020016000206040518060c00160405290816000820180546101da90610ed9565b80601f016020809104026020016040519081016040528092919081815260200182805461020690610ed9565b80156102535780601f1061022857610100808354040283529160200191610253565b820191906000526020600020905b81548152906001019060200180831161023657829003601f168201915b5050505050815260200160018201805461026c90610ed9565b80601f016020809104026020016040519081016040528092919081815260200182805461029890610ed9565b80156102e55780601f106102ba576101008083540402835291602001916102e5565b820191906000526020600020905b8154815290600101906020018083116102c857829003601f168201915b505050505081526020016002820180546102fe90610ed9565b80601f016020809104026020016040519081016040528092919081815260200182805461032a90610ed9565b80156103775780601f1061034c57610100808354040283529160200191610377565b820191906000526020600020905b81548152906001019060200180831161035a57829003601f168201915b5050505050815260200160038201805461039090610ed9565b80601f01602080910402602001604051908101604052809291908181526020018280546103bc90610ed9565b80156104095780601f106103de57610100808354040283529160200191610409565b820191906000526020600020905b8154815290600101906020018083116103ec57829003601f168201915b505050505081526020016004820160009054906101000a900460ff161515151581526020016004820160019054906101000a900460ff16151515158152505090508260405160200161045b9190610f47565b6040516020818303038152906040528051906020012081604001516040516020016104869190610f47565b6040516020818303038152906040528051906020012014156104c05760018160a00190151590811515815250508060a001519150506104c6565b60009150505b919050565b60606000803373ffffffffffffffffffffffffffffffffffffffff1673ffffffffffffffffffffffffffffffffffffffff168152602001908152602001600020600101805461051990610ed9565b80601f016020809104026020016040519081016040528092919081815260200182805461054590610ed9565b80156105925780601f1061056757610100808354040283529160200191610592565b820191906000526020600020905b81548152906001019060200180831161057557829003601f168201915b5050505050905090565b600033905060008060008373ffffffffffffffffffffffffffffffffffffffff1673ffffffffffffffffffffffffffffffffffffffff16815260200190815260200160002090508060040160009054906101000a900460ff16156105ff57600080fd5b6040518060c00160405280878152602001868152602001858152602001848152602001600115158152602001600015158152506000808473ffffffffffffffffffffffffffffffffffffffff1673ffffffffffffffffffffffffffffffffffffffff168152602001908152602001600020600082015181600001908051906020019061068c9291906109a5565b5060208201518160010190805190602001906106a99291906109a5565b5060408201518160020190805190602001906106c69291906109a5565b5060608201518160030190805190602001906106e39291906109a5565b5060808201518160040160006101000a81548160ff02191690831515021790555060a08201518160040160016101000a81548160ff021916908315150217905550905050505050505050565b600060205280600052604060002060009150905080600001805461075290610ed9565b80601f016020809104026020016040519081016040528092919081815260200182805461077e90610ed9565b80156107cb5780601f106107a0576101008083540402835291602001916107cb565b820191906000526020600020905b8154815290600101906020018083116107ae57829003601f168201915b5050505050908060010180546107e090610ed9565b80601f016020809104026020016040519081016040528092919081815260200182805461080c90610ed9565b80156108595780601f1061082e57610100808354040283529160200191610859565b820191906000526020600020905b81548152906001019060200180831161083c57829003601f168201915b50505050509080600201805461086e90610ed9565b80601f016020809104026020016040519081016040528092919081815260200182805461089a90610ed9565b80156108e75780601f106108bc576101008083540402835291602001916108e7565b820191906000526020600020905b8154815290600101906020018083116108ca57829003601f168201915b5050505050908060030180546108fc90610ed9565b80601f016020809104026020016040519081016040528092919081815260200182805461092890610ed9565b80156109755780601f1061094a57610100808354040283529160200191610975565b820191906000526020600020905b81548152906001019060200180831161095857829003601f168201915b5050505050908060040160009054906101000a900460ff16908060040160019054906101000a900460ff16905086565b8280546109b190610ed9565b90600052602060002090601f0160209004810192826109d35760008555610a1a565b82601f106109ec57805160ff1916838001178555610a1a565b82800160010185558215610a1a579182015b82811115610a195782518255916020019190600101906109fe565b5b509050610a279190610a2b565b5090565b5b80821115610a44576000816000905550600101610a2c565b5090565b6000604051905090565b600080fd5b600080fd5b600080fd5b600080fd5b6000601f19601f8301169050919050565b7f4e487b7100000000000000000000000000000000000000000000000000000000600052604160045260246000fd5b610aaf82610a66565b810181811067ffffffffffffffff82111715610ace57610acd610a77565b5b80604052505050565b6000610ae1610a48565b9050610aed8282610aa6565b919050565b600067ffffffffffffffff821115610b0d57610b0c610a77565b5b610b1682610a66565b9050602081019050919050565b82818337600083830152505050565b6000610b45610b4084610af2565b610ad7565b905082815260208101848484011115610b6157610b60610a61565b5b610b6c848285610b23565b509392505050565b600082601f830112610b8957610b88610a5c565b5b8135610b99848260208601610b32565b91505092915050565b600060208284031215610bb857610bb7610a52565b5b600082013567ffffffffffffffff811115610bd657610bd5610a57565b5b610be284828501610b74565b91505092915050565b60008115159050919050565b610c0081610beb565b82525050565b6000602082019050610c1b6000830184610bf7565b92915050565b600081519050919050565b600082825260208201905092915050565b60005b83811015610c5b578082015181840152602081019050610c40565b83811115610c6a576000848401525b50505050565b6000610c7b82610c21565b610c858185610c2c565b9350610c95818560208601610c3d565b610c9e81610a66565b840191505092915050565b60006020820190508181036000830152610cc38184610c70565b905092915050565b60008060008060808587031215610ce557610ce4610a52565b5b600085013567ffffffffffffffff811115610d0357610d02610a57565b5b610d0f87828801610b74565b945050602085013567ffffffffffffffff811115610d3057610d2f610a57565b5b610d3c87828801610b74565b935050604085013567ffffffffffffffff811115610d5d57610d5c610a57565b5b610d6987828801610b74565b925050606085013567ffffffffffffffff811115610d8a57610d89610a57565b5b610d9687828801610b74565b91505092959194509250565b600073ffffffffffffffffffffffffffffffffffffffff82169050919050565b6000610dcd82610da2565b9050919050565b610ddd81610dc2565b8114610de857600080fd5b50565b600081359050610dfa81610dd4565b92915050565b600060208284031215610e1657610e15610a52565b5b6000610e2484828501610deb565b91505092915050565b600060c0820190508181036000830152610e478189610c70565b90508181036020830152610e5b8188610c70565b90508181036040830152610e6f8187610c70565b90508181036060830152610e838186610c70565b9050610e926080830185610bf7565b610e9f60a0830184610bf7565b979650505050505050565b7f4e487b7100000000000000000000000000000000000000000000000000000000600052602260045260246000fd5b60006002820490506001821680610ef157607f821691505b60208210811415610f0557610f04610eaa565b5b50919050565b600081905092915050565b6000610f2182610c21565b610f2b8185610f0b565b9350610f3b818560208601610c3d565b80840191505092915050565b6000610f538284610f16565b91508190509291505056fea26469706673582212206a244a71f6cd9210f5218d366edff30805cd11d3a3c561f23eceeea6ae89211664736f6c634300080b0033",
  "immutableReferences": {},
  "source": "// SPDX-License-Identifier:MIT\r\n\r\npragma solidity ^0.8.7;\r\n\r\ncontract User {\r\n\r\n    struct UserStruct {\r\n        string email;\r\n        string username;\r\n        string password;\r\n        string tellNo;\r\n        bool set; // This boolean is used to differentiate between unset and zero struct values\r\n        bool isUserLoggedIn; //login status of user\r\n    }\r\n\r\n    mapping(address => UserStruct) public users;\r\n\r\n    function createUser(string memory _email, string memory _username, string memory _password, string memory _tellNo) public {\r\n        address _userAddress = msg.sender;\r\n\r\n        UserStruct storage user = users[_userAddress];\r\n\r\n        require(!user.set); // Check that the user did not already exist:\r\n\r\n        //Save user\r\n        users[_userAddress] = UserStruct({\r\n        email: _email,\r\n        username: _username,\r\n        password: _password,\r\n        tellNo: _tellNo,\r\n        set: true,\r\n        isUserLoggedIn: false\r\n        });\r\n    }\r\n\r\n    function login(string memory _password) external view returns (bool){\r\n        UserStruct memory _user = users[msg.sender];\r\n        if(keccak256(abi.encodePacked((_user.password))) == keccak256(abi.encodePacked((_password)))){\r\n            _user.isUserLoggedIn = true;\r\n            return _user.isUserLoggedIn;\r\n        }\r\n        else{\r\n            return false;\r\n        }\r\n    }\r\n\r\n    function logout() external {\r\n        users[msg.sender].isUserLoggedIn = false;\r\n    }\r\n\r\n    function username() external view returns (string memory){\r\n        return users[msg.sender].username;\r\n    }\r\n}",
  "sourcePath": "D:\\IIT\\2021-2022 Level 5\\1st Semester\\SDGP\\Development\\Frontend_Development\\flutter_dapp\\contracts\\User.sol",
  "compiler": {
    "name": "solc",
    "version": "0.8.11+commit.d7f03943.Emscripten.clang"
  },
  "schemaVersion": "3.4.5",
  "updatedAt": "2022-03-22T08:42:01.530Z",
  "devdoc": {
    "kind": "dev",
    "methods": {},
    "version": 1
  },
  "userdoc": {
    "kind": "user",
    "methods": {},
    "version": 1
  }
}