{
  "contractName": "UserContract",
  "abi": [
    {
      "inputs": [
        {
          "internalType": "address",
          "name": "",
          "type": "address"
        }
      ],
      "name": "users",
      "outputs": [
        {
          "internalType": "string",
          "name": "email",
          "type": "string"
        },
        {
          "internalType": "string",
          "name": "username",
          "type": "string"
        },
        {
          "internalType": "string",
          "name": "password",
          "type": "string"
        },
        {
          "internalType": "string",
          "name": "tellNo",
          "type": "string"
        },
        {
          "internalType": "bool",
          "name": "set",
          "type": "bool"
        },
        {
          "internalType": "bool",
          "name": "isUserLoggedIn",
          "type": "bool"
        }
      ],
      "stateMutability": "view",
      "type": "function"
    },
    {
      "inputs": [
        {
          "internalType": "string",
          "name": "_email",
          "type": "string"
        },
        {
          "internalType": "string",
          "name": "_username",
          "type": "string"
        },
        {
          "internalType": "string",
          "name": "_password",
          "type": "string"
        },
        {
          "internalType": "string",
          "name": "_tellNo",
          "type": "string"
        }
      ],
      "name": "createUser",
      "outputs": [],
      "stateMutability": "nonpayable",
      "type": "function"
    },
    {
      "inputs": [
        {
          "internalType": "string",
          "name": "_password",
          "type": "string"
        }
      ],
      "name": "login",
      "outputs": [
        {
          "internalType": "bool",
          "name": "",
          "type": "bool"
        }
      ],
      "stateMutability": "view",
      "type": "function"
    },
    {
      "inputs": [],
      "name": "logout",
      "outputs": [],
      "stateMutability": "nonpayable",
      "type": "function"
    }
  ],
  "bytecode": "0x608060405234801561001057600080fd5b50610e78806100206000396000f3fe608060405234801561001057600080fd5b5060043610610069576000357c0100000000000000000000000000000000000000000000000000000000900480631f3c99c31461006e5780633a7d280c146100785780636f7fcddb146100a8578063a87430ba146100c4575b600080fd5b6100766100f9565b005b610092600480360381019061008d9190610aa8565b610155565b60405161009f9190610b0c565b60405180910390f35b6100c260048036038101906100bd9190610b27565b6104a2565b005b6100de60048036038101906100d99190610c5c565b610635565b6040516100f096959493929190610d11565b60405180910390f35b60008060003373ffffffffffffffffffffffffffffffffffffffff1673ffffffffffffffffffffffffffffffffffffffff16815260200190815260200160002060040160016101000a81548160ff021916908315150217905550565b6000806000803373ffffffffffffffffffffffffffffffffffffffff1673ffffffffffffffffffffffffffffffffffffffff1681526020019081526020016000206040518060c00160405290816000820180546101b190610dbd565b80601f01602080910402602001604051908101604052809291908181526020018280546101dd90610dbd565b801561022a5780601f106101ff5761010080835404028352916020019161022a565b820191906000526020600020905b81548152906001019060200180831161020d57829003601f168201915b5050505050815260200160018201805461024390610dbd565b80601f016020809104026020016040519081016040528092919081815260200182805461026f90610dbd565b80156102bc5780601f10610291576101008083540402835291602001916102bc565b820191906000526020600020905b81548152906001019060200180831161029f57829003601f168201915b505050505081526020016002820180546102d590610dbd565b80601f016020809104026020016040519081016040528092919081815260200182805461030190610dbd565b801561034e5780601f106103235761010080835404028352916020019161034e565b820191906000526020600020905b81548152906001019060200180831161033157829003601f168201915b5050505050815260200160038201805461036790610dbd565b80601f016020809104026020016040519081016040528092919081815260200182805461039390610dbd565b80156103e05780601f106103b5576101008083540402835291602001916103e0565b820191906000526020600020905b8154815290600101906020018083116103c357829003601f168201915b505050505081526020016004820160009054906101000a900460ff161515151581526020016004820160019054906101000a900460ff1615151515815250509050826040516020016104329190610e2b565b60405160208183030381529060405280519060200120816040015160405160200161045d9190610e2b565b6040516020818303038152906040528051906020012014156104975760018160a00190151590811515815250508060a0015191505061049d565b60009150505b919050565b600033905060008060008373ffffffffffffffffffffffffffffffffffffffff1673ffffffffffffffffffffffffffffffffffffffff16815260200190815260200160002090508060040160009054906101000a900460ff161561050557600080fd5b6040518060c00160405280878152602001868152602001858152602001848152602001600115158152602001600015158152506000808473ffffffffffffffffffffffffffffffffffffffff1673ffffffffffffffffffffffffffffffffffffffff16815260200190815260200160002060008201518160000190805190602001906105929291906108ab565b5060208201518160010190805190602001906105af9291906108ab565b5060408201518160020190805190602001906105cc9291906108ab565b5060608201518160030190805190602001906105e99291906108ab565b5060808201518160040160006101000a81548160ff02191690831515021790555060a08201518160040160016101000a81548160ff021916908315150217905550905050505050505050565b600060205280600052604060002060009150905080600001805461065890610dbd565b80601f016020809104026020016040519081016040528092919081815260200182805461068490610dbd565b80156106d15780601f106106a6576101008083540402835291602001916106d1565b820191906000526020600020905b8154815290600101906020018083116106b457829003601f168201915b5050505050908060010180546106e690610dbd565b80601f016020809104026020016040519081016040528092919081815260200182805461071290610dbd565b801561075f5780601f106107345761010080835404028352916020019161075f565b820191906000526020600020905b81548152906001019060200180831161074257829003601f168201915b50505050509080600201805461077490610dbd565b80601f01602080910402602001604051908101604052809291908181526020018280546107a090610dbd565b80156107ed5780601f106107c2576101008083540402835291602001916107ed565b820191906000526020600020905b8154815290600101906020018083116107d057829003601f168201915b50505050509080600301805461080290610dbd565b80601f016020809104026020016040519081016040528092919081815260200182805461082e90610dbd565b801561087b5780601f106108505761010080835404028352916020019161087b565b820191906000526020600020905b81548152906001019060200180831161085e57829003601f168201915b5050505050908060040160009054906101000a900460ff16908060040160019054906101000a900460ff16905086565b8280546108b790610dbd565b90600052602060002090601f0160209004810192826108d95760008555610920565b82601f106108f257805160ff1916838001178555610920565b82800160010185558215610920579182015b8281111561091f578251825591602001919060010190610904565b5b50905061092d9190610931565b5090565b5b8082111561094a576000816000905550600101610932565b5090565b6000604051905090565b600080fd5b600080fd5b600080fd5b600080fd5b6000601f19601f8301169050919050565b7f4e487b7100000000000000000000000000000000000000000000000000000000600052604160045260246000fd5b6109b58261096c565b810181811067ffffffffffffffff821117156109d4576109d361097d565b5b80604052505050565b60006109e761094e565b90506109f382826109ac565b919050565b600067ffffffffffffffff821115610a1357610a1261097d565b5b610a1c8261096c565b9050602081019050919050565b82818337600083830152505050565b6000610a4b610a46846109f8565b6109dd565b905082815260208101848484011115610a6757610a66610967565b5b610a72848285610a29565b509392505050565b600082601f830112610a8f57610a8e610962565b5b8135610a9f848260208601610a38565b91505092915050565b600060208284031215610abe57610abd610958565b5b600082013567ffffffffffffffff811115610adc57610adb61095d565b5b610ae884828501610a7a565b91505092915050565b60008115159050919050565b610b0681610af1565b82525050565b6000602082019050610b216000830184610afd565b92915050565b60008060008060808587031215610b4157610b40610958565b5b600085013567ffffffffffffffff811115610b5f57610b5e61095d565b5b610b6b87828801610a7a565b945050602085013567ffffffffffffffff811115610b8c57610b8b61095d565b5b610b9887828801610a7a565b935050604085013567ffffffffffffffff811115610bb957610bb861095d565b5b610bc587828801610a7a565b925050606085013567ffffffffffffffff811115610be657610be561095d565b5b610bf287828801610a7a565b91505092959194509250565b600073ffffffffffffffffffffffffffffffffffffffff82169050919050565b6000610c2982610bfe565b9050919050565b610c3981610c1e565b8114610c4457600080fd5b50565b600081359050610c5681610c30565b92915050565b600060208284031215610c7257610c71610958565b5b6000610c8084828501610c47565b91505092915050565b600081519050919050565b600082825260208201905092915050565b60005b83811015610cc3578082015181840152602081019050610ca8565b83811115610cd2576000848401525b50505050565b6000610ce382610c89565b610ced8185610c94565b9350610cfd818560208601610ca5565b610d068161096c565b840191505092915050565b600060c0820190508181036000830152610d2b8189610cd8565b90508181036020830152610d3f8188610cd8565b90508181036040830152610d538187610cd8565b90508181036060830152610d678186610cd8565b9050610d766080830185610afd565b610d8360a0830184610afd565b979650505050505050565b7f4e487b7100000000000000000000000000000000000000000000000000000000600052602260045260246000fd5b60006002820490506001821680610dd557607f821691505b60208210811415610de957610de8610d8e565b5b50919050565b600081905092915050565b6000610e0582610c89565b610e0f8185610def565b9350610e1f818560208601610ca5565b80840191505092915050565b6000610e378284610dfa565b91508190509291505056fea26469706673582212205711a59b7189bf7880938279d4700e2d111a46cac95e27e31dfa161fc88b028c64736f6c634300080b0033",
  "immutableReferences": {},
  "source": "// SPDX-License-Identifier:MIT\r\n\r\npragma solidity ^0.8.7;\r\n\r\ncontract UserContract {\r\n\r\n    struct User {\r\n        string email;\r\n        string username;\r\n        string password;\r\n        string tellNo;\r\n        bool set; // This boolean is used to differentiate between unset and zero struct values\r\n        bool isUserLoggedIn; //login status of user\r\n    }\r\n\r\n    mapping(address => User) public users;\r\n\r\n    function createUser(string memory _email, string memory _username, string memory _password, string memory _tellNo) public {\r\n        address _userAddress = msg.sender;\r\n\r\n        User storage user = users[_userAddress];\r\n\r\n        require(!user.set); // Check that the user did not already exist:\r\n\r\n        //Save user\r\n        users[_userAddress] = User({\r\n        email: _email,\r\n        username: _username,\r\n        password: _password,\r\n        tellNo: _tellNo,\r\n        set: true,\r\n        isUserLoggedIn: false\r\n        });\r\n    }\r\n\r\n    function login(string memory _password) external view returns (bool){\r\n        User memory _user = users[msg.sender];\r\n        if(keccak256(abi.encodePacked((_user.password))) == keccak256(abi.encodePacked((_password)))){\r\n            _user.isUserLoggedIn = true;\r\n            return _user.isUserLoggedIn;\r\n        }\r\n        else{\r\n            return false;\r\n        }\r\n    }\r\n\r\n    function logout() external {\r\n        users[msg.sender].isUserLoggedIn = false;\r\n    }\r\n}",
  "sourcePath": "D:\\IIT\\2021-2022 Level 5\\1st Semester\\SDGP\\Development\\Frontend_Development\\flutter_dapp\\contracts\\User.sol",
  "compiler": {
    "name": "solc",
    "version": "0.8.11+commit.d7f03943.Emscripten.clang"
  },
  "schemaVersion": "3.4.6",
  "updatedAt": "2022-05-01T18:21:33.334Z",
  "devdoc": {
    "kind": "dev",
    "methods": {},
    "version": 1
  },
  "userdoc": {
    "kind": "user",
    "methods": {},
    "version": 1
  }
}